:020000040000FA
:0400000007EF00F016
:0A0008002982C6ED05F08BEF06F02B
:100600000000000E0B6E000E0A6E000E0D6E000E46
:100610000C6E000E0F6E000E0E6EA6EC06F0010EB4
:100620001DEC06F0096E0950106E116A070E1018C5
:100630001110D8A41EEF03F020EF03F03AEF03F0FF
:10064000D5AE25EF03F028EF03F0D58E29EF03F0A8
:10065000D59E0A500B10D8B430EF03F033EF03F0FF
:10066000010E34EF03F0000E0A6E0B6A000E0F6EDF
:10067000000E0E6E0A040B10D8A441EF03F043EFF6
:1006800003F0AAEF04F00B0E10181110D8A44BEFD2
:1006900003F04DEF03F062EF03F00C500D10D8B4EF
:1006A00054EF03F057EF03F0010E58EF03F0000E84
:1006B0000C6E0D6A000E0F6E000E0E6E000E156EA3
:1006C000000E146E0C500D10D8A469EF03F06BEF00
:1006D00003F007EF04F018C001F019C002F0000E9B
:1006E000046E0A0E036E0CEC05F001501E0FD96E5D
:1006F000DA6ADF501A6E18C001F019C002F0000E5D
:10070000046E0A0E036E6EEC05F001501E0FD96EDA
:10071000DA6ADF501B6E0E4A0F2A650E0E180F1094
:10072000D8A495EF03F097EF03F0B9EF03F016C0EC
:1007300001F017C002F0000E046E0A0E036E0CECFE
:1007400005F001501E0FD96EDA6ADF501C6E16C01C
:1007500001F017C002F0000E046E0A0E036E6EEC7C
:1007600005F001501E0FD96EDA6ADF501D6ECBEF17
:1007700003F0C80E0E180F10D8A4C1EF03F0C3EF9A
:1007800003F0CBEF03F0000E0F6E000E0E6E400E66
:100790001C6E400E1D6E0E0E10181110D8A4D3EF53
:1007A00003F0D5EF03F0EBEF03F0164A172A17BE5C
:1007B000E3EF03F0175009E13C0E165CD8A0E3EF1D
:1007C00003F0E5EF03F004EF05F0000E176E000EE6
:1007D000166E04EF05F00D0E10181110D8A4F3EFEB
:1007E00003F0F5EF03F004EF05F01606D8A01706A6
:1007F00017BEFFEF03F0FDEF03F005EF04F0000E6E
:10080000176E3B0E166E04EF05F004EF05F00C04B6
:100810000D10D8A40EEF04F010EF04F004EF05F073
:1008200016C001F017C002F0000E046E0A0E036E2F
:100830000CEC05F001501E0FD96EDA6ADF501C6E09
:1008400016C001F017C002F0000E046E0A0E036E0F
:100850006EEC05F001501E0FD96EDA6ADF501D6E86
:100860000E4A0F2A650E0E180F10D8A43AEF04F0A6
:100870003CEF04F05EEF04F018C001F019C002F084
:10088000000E046E0A0E036E0CEC05F001501E0FF4
:10089000D96EDA6ADF501A6E18C001F019C002F082
:1008A000000E046E0A0E036E6EEC05F001501E0F72
:1008B000D96EDA6ADF501B6E70EF04F0C80E0E18A6
:1008C0000F10D8A466EF04F068EF04F070EF04F0A6
:1008D000000E0F6E000E0E6E400E1A6E400E1B6E56
:1008E0000E0E10181110D8A478EF04F07AEF04F06F
:1008F00090EF04F0184A192A19BE88EF04F0195035
:1009000009E1180E185CD8A088EF04F08AEF04F013
:1009100004EF05F0000E196E000E186E04EF05F0DE
:100920000D0E10181110D8A498EF04F09AEF04F0EF
:1009300004EF05F01806D8A0190619BEA4EF04F0BC
:10094000A2EF04F005EF04F0000E196E170E186EFA
:1009500004EF05F014B0AFEF04F0B1EF04F0C4EF12
:1009600004F018C001F019C002F0000E046E0A0E67
:10097000036E6EEC05F001501E0FD96EDA6ADF507F
:1009800010091B6ED4EF04F018C001F019C002F07A
:10099000000E046E0A0E036E6EEC05F001501E0F81
:1009A000D96EDA6ADF501B6E18C001F019C002F070
:1009B000000E046E0A0E036E0CEC05F001501E0FC3
:1009C000D96EDA6ADF501A6E16C001F017C002F055
:1009D000000E046E0A0E036E0CEC05F001501E0FA3
:1009E000D96EDA6ADF501C6E16C001F017C002F033
:1009F000000E046E0A0E036E6EEC05F001501E0F21
:100A0000D96EDA6ADF501D6E1A0E016E58EC06F0D0
:100A10000FEF03F007EF00F0000E066E04BE15EFB7
:100A200005F013EF05F01BEF05F0036C041ED8B0C2
:100A3000042A010E066E02BE22EF05F020EF05F03B
:100A400028EF05F0016C021ED8B0022A010E061A2A
:100A5000000E086E000E076E03500410D8B433EF7A
:100A600005F035EF05F05DEF05F0010E056E3DEF89
:100A700005F0D89003360436052A04AE42EF05F09F
:100A800044EF05F039EF05F0D890073608360350EB
:100A9000015C04500258D8A050EF05F052EF05F069
:100AA00057EF05F00350015E0450025A0780D890BA
:100AB00004320332052E44EF05F00650D8B463EF3C
:100AC00005F065EF05F069EF05F0076C081ED8B07A
:100AD000082A07C001F008C002F01200000E066EDE
:100AE00002BE77EF05F075EF05F07DEF05F0016CC4
:100AF000021ED8B0022A010E066E04BE84EF05F075
:100B000082EF05F088EF05F0036C041ED8B0042ACC
:100B100003500410D8B48FEF05F091EF05F0B5EF56
:100B200005F0010E056E99EF05F0D89003360436F6
:100B3000052A04AE9EEF05F0A0EF05F095EF05F055
:100B40000350015C04500258D8A0A9EF05F0ABEFA8
:100B500005F0AFEF05F00350015E0450025AD89043
:100B600004320332052EA0EF05F00650D8B4BBEFD7
:100B700005F0BDEF05F0C1EF05F0016C021ED8B025
:100B8000022A01C001F002C002F012000600F2A425
:100B9000CCEF05F0CEEF05F01BEF06F0124A132A5A
:100BA000200E121807E14E0E1318D8A4DAEF05F044
:100BB000DCEF05F01AEF06F0000E136E000E126E59
:100BC000144A152A3C0E14181510D8A4EAEF05F0A3
:100BD000ECEF05F01AEF06F0000E156E000E146E25
:100BE000164A172A17BEFEEF05F0175009E13C0E12
:100BF000165CD8A0FEEF05F000EF06F01AEF06F045
:100C0000000E176E000E166E184A192A19BE12EF42
:100C100006F0195009E1180E185CD8A012EF06F082
:100C200014EF06F01AEF06F0000E196E000E186EA3
:100C30001AEF06F0F29429921100016E0104D8A473
:100C400024EF06F026EF06F04CEF06F082500F0B73
:100C50000F0AD8B42EEF06F030EF06F03EEF06F0A4
:100C60002850D8B436EF06F038EF06F03EEF06F025
:100C7000000E286E82500F0B57EF06F082500F0BBC
:100C80000F0AD8A446EF06F048EF06F056EF06F03C
:100C9000010E286E56EF06F00150D8A452EF06F070
:100CA00054EF06F056EF06F03AEF06F0FF0E120092
:100CB000000E066E01500624D96EDA6ADF50836E8C
:100CC00006C002F0010E036E022A69EF06F0D8900A
:100CD0000336022E67EF06F08050F00B0310806E93
:100CE000030E056EE80E046E0406D8A0050604285F
:100CF00006E10528D8A47FEF06F081EF06F074EF37
:100D000006F0062A030E066488EF06F08AEF06F066
:100D10005AEF06F01200A00EF66E0D0EF76E000EE2
:100D2000F86E00EE1EF010EE0BF00900F5CFEEFFAE
:100D3000E550E150FAE100EE12F00C0EEE6AE80622
:100D4000FDE129902992000101EF03F0C7EC06F0C4
:100D5000B8EC06F0000E956E9250F00B926E80503B
:100D6000F00B806E000E836E94500F09946E12008B
:100D7000F28C0F0EC16ED58CD59AD58ED586000E0D
:100D8000D76E060ED66EF294F28AF28E1200000E24
:100D9000956E9250F00B926E8050F00B806E1200A8
:0B0DA000E721CB6B2D6EEE23EF6F01FF
:020000040020DA
:08000000FFFFFFFFFFFFFFFF00
:020000040030CA
:0E000000FF071F1FFF8285FF0FC00FE00F409C
:00000001FF
